:020000040000FA
:100000000C9462000C948A000C948A000C948A0070
:100010000C948A000C948A000C948A000C948A0038
:100020000C948A000C948A000C948A000C940206AA
:100030000C948A000C948A000C948A000C948A0018
:100040000C94B8050C948A000C948A000C948A00D5
:100050000C948A000C948A000C948A000C948A00F8
:100060000C948A000C948A000000000024002700F1
:100070002A0000000000250028002B0000000000DE
:1000800023002600290004040404040404040202DA
:100090000202020203030303030301020408102007
:1000A0004080010204081020010204081020000012
:1000B0000008000201000003040700000000000027
:1000C00000001C0811241FBECFEFD8E0DEBFCDBF5B
:1000D00011E0A0E0B1E0EEE5F2E102C005900D9282
:1000E000A039B107D9F722E0A0E9B1E001C01D9223
:1000F000A335B207E1F710E0C2E6D0E004C02197D3
:10010000FE010E941E09C136D107C9F70E94BE0632
:100110000C942D090C940000CF92DF92EF92FF9285
:10012000DC01A03282E0B807D4F5A53BB10514F09C
:10013000A4EBB0E04091390228E830E0241B3109FB
:1001400047FD3395220F331F220F331F6901330FF1
:10015000EE08FF0840913A0228E532E0241B3109FD
:1001600047FD3395220F331F220F331F032E000C40
:10017000440B550B2C193D094E095F09B7FF02C00E
:10018000B0E0A0E00E94D90824EB30E040E050E06D
:100190000E94AF08C20ED31EE41EF51ED601E091E8
:1001A0003802EC3080F52091390288E890E0821B1B
:1001B000910927FD9395880F991F880F991FA817FC
:1001C000B90784F020913A0288E592E0821B9109F8
:1001D00027FD9395880F991F880F991FA817B907B6
:1001E0000CF4CD010297880F991F4FB7F8942E2F6A
:1001F00030E0F901EE0FFF1FE20FF31FEC5EFD4F41
:10020000928381834FBFFF90EF90DF90CF9008954E
:1002100096E0899FD0011124AB55BE4F90967C93F8
:100220006E935F9791E091969C939197E091120263
:10023000F091130290911102992339F0309751F007
:10024000811108C08091C1010994309719F05C9622
:100250008C91FACF0895CF92DF92EF92FF920F9395
:100260001F9396E0899FF0011124EB55FE4F11A2D8
:10027000278D30A12130310551F178F02230310540
:1002800009F451C02330310509F452C01F910F9178
:10029000FF90EF90DF90CF9008956623B9F361E06F
:1002A00070E00E9408012FB7F8948091A10190910D
:1002B000A201A091A301B091A4012FBF8093FD01E1
:1002C0009093FE01A093FF01B0930002DFCF9FB790
:1002D000F894C090A101D090A201E090A301F09009
:1002E000A4019FBF0091FD011091FE012091FF012B
:1002F00030910002C01AD10AE20AF30A00910F02FB
:100300001091100230E020E00C151D052E053F0570
:1003100050F462E070E01F910F91FF90EF90DF903A
:10032000CF900C9408016111B1CF63E070E0F3CF7E
:1003300070E060E0F0CFAF92BF92CF92DF92EF9289
:10034000FF920F931F93CF93DF936C017B018B017F
:10035000040F151FEB015E01AE18BF08C017D107CF
:1003600059F06991D601ED91FC910190F081E02D59
:10037000C6010995892B79F7C501DF91CF911F91AE
:100380000F91FF90EF90DF90CF90BF90AF900895C6
:10039000833081F028F4813099F08230A9F00895FB
:1003A0008730A9F08830C9F08430B1F480918000A2
:1003B0008F7D03C0809180008F77809380000895A7
:1003C00084B58F7784BD089584B58F7DFBCF8091F0
:1003D000B0008F778093B00008958091B0008F7D3A
:1003E000F9CFCF93DF93282F30E0F901E255FF4F8B
:1003F0008491F901E656FF4FD491F901EA57FF4F76
:10040000C491CC23A1F081110E94C801EC2FF0E02F
:10041000EE0FFF1FE458FF4FA591B491EC91ED232F
:1004200081E090E009F480E0DF91CF91089580E0D1
:1004300090E0FACF862F0C94F1011F93CF93DF93B6
:10044000282F30E0F901E255FF4F8491F901E6567B
:10045000FF4FD491F901EA57FF4FC491CC23A9F083
:10046000162F81110E94C801EC2FF0E0EE0FFF1F44
:10047000EE58FF4FA591B4918FB7F894EC911111FC
:1004800008C0D095DE23DC938FBFDF91CF911F9101
:100490000895DE2BF8CF862F642F0C941D02CF9386
:1004A000DF9390E0FC01E656FF4F24918A579F4F5F
:1004B000FC0184918823C9F090E0880F991FFC010A
:1004C000E859FF4FA591B491FC01EE58FF4FC5913B
:1004D000D49161110DC09FB7F8948C91209582231F
:1004E0008C938881282328839FBFDF91CF91089523
:1004F000623051F49FB7F8943C91822F809583230A
:100500008C93E8812E2BEFCF8FB7F894EC912E2BA4
:100510002C938FBFEACF862F642F0C944F026F92DB
:100520007F928F929F92AF92BF92CF92DF92EF9283
:10053000FF920F931F93CF93DF9381E0809311027B
:100540008FB7F8944091A1015091A2016091A3014D
:100550007091A4018FBF8091010290910202A0913D
:100560000302B0910402481B590B6A0B7B0B80916C
:100570000D0290910E02B0E0A0E084179507A60747
:10058000B70708F01DC1C0E080910B02C81760F4E6
:10059000E0910702F0910802EC0FF11D62E080810A
:1005A0000E944F02CF5FF0CF712C812C912C54010F
:1005B000839480910C02781608F05FC0072D10E03C
:1005C000E0910902F0910A02E00FF11F61E08081E1
:1005D0000E944F02E0910902F0910A02E00FF11F20
:1005E00060E080810E941D02D501C401072C04C077
:1005F000880F991FAA1FBB1F0A94D2F76C017C01B8
:10060000E094F094612C80910B026816F8F4C62DEA
:10061000D0E0E0910702F0910802EC0FFD1F80810D
:100620000E94F1012496CC0FDD1FCB55DE4F892BA4
:1006300041F4888199818C299D29998388836394C9
:10064000E2CF888199818E219F21F7CFE091090225
:10065000F0910A02E00FF11F61E080810E941D020B
:100660008091090290910A02080F191F60E0F801B9
:1006700080810E944F0273949CCFC5EAD1E0FE01B5
:100680008FEF9FEF278D30A1232B21F4148E968FAF
:10069000858F11A2369621E0E13EF20799F7F12C01
:1006A00096E0D92E80910B02F81608F050C0E12C8C
:1006B0000F2D10E0000F111F03551E4F20910C024B
:1006C000E21608F042C0F801608171810E2C02C070
:1006D000769567950A94E2F7F29E900111242E0D0B
:1006E000311DE5EAF1E080E0458D568D2417350790
:1006F00009F46AC08F5F36968A30B1F760FF23C075
:10070000E5EAF1E090E080E0448D411117C0E0910E
:100710000502F0910602E20FF31F4081D89EF0011E
:10072000D99EF00D1124EB55FE4F448F368F258F47
:1007300010A2178E61E00E942B0105C0019636962B
:100740008A30910509F7E394B9CFF394ABCF80E0F9
:1007500099A19111892F2696F1E0C13EDF07C1F7DB
:100760009FB7F8944091A1015091A2016091A3011B
:100770007091A4019FBF40930102509302026093C5
:100780000302709304028823D9F08091C601882364
:10079000B9F08091C4019091C501019789F48091CD
:1007A000C101DF91CF911F910F91FF90EF90DF90EA
:1007B000CF90BF90AF909F908F907F906F90089553
:1007C0001092110280E0EDCF6170B5CF3FB7F89481
:1007D0008091930190919401A0919501B09196011F
:1007E00026B5A89B05C02F3F19F00196A11DB11D8C
:1007F0003FBFBA2FA92F982F8827BC01CD01620FC8
:10080000711D811D911D42E0660F771F881F991F82
:100810004A95D1F708958F929F92AF92BF92CF924F
:10082000DF92EF92FF924B015C010E94E6036B01A5
:100830007C010E94E6036C197D098E099F09683EC0
:10084000734081059105A8F321E0821A9108A1085F
:10085000B10888EEC80E83E0D81EE11CF11C81149B
:100860009104A104B10429F7FF90EF90DF90CF909D
:10087000BF90AF909F908F900895089590E080E092
:100880000895CF93DF931092980110929701C09131
:100890009701D0919801C53BD1057CF4CE010E940F
:1008A0008C006FE070E080E090E00E940B042596E1
:1008B000D0939801C0939701EACFDF91CF9108952B
:1008C000FC0101900020E9F73197AF01481B590B5B
:1008D000BC018BE392E00C949B01CF93DF93EC017E
:1008E00060E08E810E941D0261E08E810E941D02E7
:1008F00060E08E810E941D028BE891E00197F1F784
:10090000DF91CF910895CF92DF92EF92FF920F93F4
:100910001F93CF93DF936C017C0187E0E80EF11CFD
:10092000D0E0C0E0062F10E0B8010C2E02C0759593
:1009300067950A94E2F76170F70181917F010E9447
:100940001D022196C430D10579F7C601DF91CF9100
:100950001F910F91FF90EF90DF90CF900C946D045A
:10096000CF92DF92EF92FF920F931F93CF93DF937B
:10097000EC01F62E642F8C810E941D028D818F3F29
:1009800019F060E00E941D020F2D10E08F8584FF9A
:1009900025C06E0187E0C80ED11CF12CE12CB801F6
:1009A0000E2C02C0759567950A94E2F76170F60106
:1009B00081916F010E941D02FFEFEF1AFF0A88E08C
:1009C000E816F10461F7CE01DF91CF911F910F91ED
:1009D000FF90EF90DF90CF900C946D04B80184E00D
:1009E000759567958A95E1F7CE010E9483046F2D76
:1009F000CE01DF91CF911F910F91FF90EF90DF908B
:100A0000CF900C94830440E0682F8BE392E00C9429
:100A1000B00481E00E9403058BE39FE10197F1F7A9
:100A20000895CF93DF93823029F490914A02986021
:100A300090934A0280934E0210924F0280E480937A
:100A4000500280E18093510280E58093520261E080
:100A500080913F020E944F02809140028F3F19F027
:100A600061E00E944F0261E0809141020E944F02CA
:100A7000CBE3D2E09E012B53324080914A0284FDA9
:100A80000BC084E090E021962817390744F461E018
:100A90008E810E944F02EECF88E090E0F4CF8BE38E
:100AA0009DE00197F1F760E080913F020E941D02F6
:100AB00060E0809141020E941D02809140028F3FC0
:100AC00019F060E00E941D0280914A0284FD34C04A
:100AD00063E08BE392E00E948304CBE4D6E4CE0192
:100AE0000197F1F763E08BE392E00E948304219782
:100AF000F1F763E08BE392E00E94830483E592E0E8
:100B00000197F1F762E08BE392E00E948304809109
:100B10004A0280620E94030584E080934B028CE0CD
:100B20000E9403050E94090582E080934C0286E042
:100B3000DF91CF910C94030580620E9403058BE442
:100B400096E40197F1F780914A0280620E940305C2
:100B500083E592E00197F1F780914A0280620E945A
:100B60000305D5CF41E00E94B00481E090E00895F4
:100B70001F920F920FB60F9211242F933F938F93D2
:100B80009F93AF93BF938091A1019091A201A091F7
:100B9000A301B091A4013091920123E0230F2D37DE
:100BA00058F50196A11DB11D209392018093A101DA
:100BB0009093A201A093A301B093A401809193010B
:100BC00090919401A0919501B09196010196A11D7B
:100BD000B11D8093930190939401A0939501B093DC
:100BE0009601BF91AF919F918F913F912F910F905F
:100BF0000FBE0F901F90189526E8230F0296A11D97
:100C0000B11DD2CF1F920F920FB60F9211242F93C6
:100C10003F934F935F936F937F938F939F93AF9384
:100C2000BF93CF93DF93EF93FF9380919101C09196
:100C30009001D0E087FF24C01092850010928400BC
:100C4000809191018F5F8093910180919101082E95
:100C5000000C990B8C179D0724F4809191018C3026
:100C6000C4F18091840090918500049680349C4961
:100C700008F47AC08091840090918500049676C033
:100C800080919101082E000C990B8C179D07C4F6DA
:100C9000E09191018E2FEE0F990BFC01EE0FFF1FDB
:100CA000E80FF91FEC5EFD4F808186FFC9CFE09110
:100CB00091018E2FEE0F990BFC01EE0FFF1FE80F35
:100CC000F91FEC5EFD4F808160E08F730E941D0272
:100CD000B7CF2091840030918500E09191018E2F53
:100CE000EE0F990BFC01EE0FFF1FE80FF91FEC5EF2
:100CF000FD4F81819281820F931F90938900809391
:100D00008800E09191018E2FEE0F990BFC01EE0F00
:100D1000FF1FE80FF91FEC5EFD4F808186FF11C0B9
:100D2000E09191018E2FEE0F990BFC01EE0FFF1F4A
:100D3000E80FF91FEC5EFD4F808161E08F730E9428
:100D40001D02FF91EF91DF91CF91BF91AF919F91E4
:100D50008F917F916F915F914F913F912F910F9064
:100D60000FBE0F901F90189580E49CE99093890026
:100D7000809388008FEF80939101E3CF789484B5BE
:100D8000826084BD84B5816084BD85B5826085BD87
:100D900085B5816085BD80916E00816080936E0015
:100DA0001092810080918100826080938100809107
:100DB00081008160809381008091800081608093B8
:100DC00080008091B10084608093B1008091B00078
:100DD00081608093B00080917A00846080937A0073
:100DE00080917A00826080937A0080917A0081609D
:100DF00080937A0080917A00806880937A001092C4
:100E0000C100809138028C3008F051C061E089E067
:100E10000E944F0280913802282F30E0F901EE0F36
:100E2000FF1FE20FF31FEC5EFD4F9081907C9960F5
:100E300090831092390210923A022CE0622F0E94A5
:100E40001209829FB001112430E020E0AB01420F73
:100E5000531FFA01EE0FFF1FE40FF51FEC5EFD4F6D
:100E6000908196FD16C02F5F3F4F2C30310571F7F2
:100E700081110FC01092800082E080938100109257
:100E8000850010928400B19A80916F0082608093F7
:100E90006F00E09138028E2F90E0FC01EE0FFF1FF3
:100EA000E80FF91FEC5EFD4F8081806480830E9413
:100EB000410482E00E94110581E391E00E946004F8
:100EC000E0914E02E230C8F5E150F0E0E55CFD4F04
:100ED000848980680E9403058FE391E00E9460048A
:100EE00068EB7BE080E090E00E940B040E94090523
:100EF00000E010E0DD24D39484EBE82EF12C809107
:100F00001A0181111CC00E948F02833281F40E9459
:100F100009050E94410480E591E00E94600468EBAD
:100F20007BE080E090E00E940B04D0921A01011552
:100F3000110529F30E940000E2CFE1E0C6CFE1E015
:100F400080914E028111E0E0E195F0E0E55CFD4F1B
:100F5000848980680E94030580E691E00E94600415
:100F60000E948F028823E9F0C090A001CC2DD0E030
:100F7000C756DE4F8883E0914E02E230C8F5E1505B
:100F8000F0E0E55CFD4F84898C0D80680E940305CC
:100F900041E068818BE392E00E94B004C394C09268
:100FA000A0018091A0018630C9F563E171E089E973
:100FB00091E00E942409892B19F50E940905F092FD
:100FC0009801E0929701C0919701D0919801D7FDC7
:100FD00011C0CE010E948C006FE070E080E090E0D4
:100FE0000E940B042597D0939801C0939701EBCFF3
:100FF000E1E0C6CF80E791E00E94600410921A0100
:101000000E9409058FE791E00E94600468EE73E09A
:1010100080E090E00E940B04D0921A018091A00120
:10102000E82FF0E0E656FE4F882319F08150129227
:10103000FBCF1092A0017BCF809190018C3008F003
:101040008AC091E0980F909390018093380290E0CD
:10105000FC01EE0FFF1FE80FF91FEC5EFD4F88EB60
:101060009BE09283818310923E0210923D0289E2BE
:1010700091E090933C0280933B028DE080933F028D
:101080008FEF809340028CE0809341028BE080934D
:1010900042028AE08093430289E08093440288E020
:1010A0008093450210924602109247021092480225
:1010B0001092490210924A0281E00E94110510929A
:1010C000A7011092AB011092AA011092AC018FE11E
:1010D00091E09093A6018093A501E1ECF1E01082EC
:1010E000148213821582369681E0ED3FF807B9F736
:1010F00083E091E0909308028093070280E091E002
:1011000090930A028093090284E080930B0283E0AB
:1011100080930C0287E091E0909306028093050291
:101120008AE090E090930E0280930D0284EF91E0AC
:101130009093100280930F021092130210921202E9
:101140001092010210920202109203021092040205
:101150001092110208958FEF8093380284CF052EEC
:1011600097FB1EF400940E94C60857FD07D00E940A
:10117000E10807FC03D04EF40C94C6085095409546
:10118000309521953F4F4F4F5F4F08959095809533
:10119000709561957F4F8F4F9F4F08950E9403096F
:1011A000A59F900DB49F900DA49F800D911D1124BB
:1011B0000895B7FF0C94CE080E94CE08821B930BB3
:1011C0000895A1E21A2EAA1BBB1BFD010DC0AA1F88
:1011D000BB1FEE1FFF1FA217B307E407F50720F0A0
:1011E000A21BB30BE40BF50B661F771F881F991F1B
:1011F0001A9469F760957095809590959B01AC0164
:10120000BD01CF010895A29FB001B39FC001A39F6C
:10121000700D811D1124911DB29F700D811D11242F
:10122000911D0895991B79E004C0991F961708F045
:10123000961B881F7A95C9F780950895EE0FFF1FBA
:101240000590F491E02D0994FB01DC018D91019052
:1012500080190110D9F3990B0895F894FFCF050672
:1012600007010203043132333435363738392A3036
:10127000233132333435360001000000008B024B3D
:10128000021A0200000000B2059B013E043D04204A
:1012900041726475696E6F20446F6F72002D2D4C22
:1012A0006F6F6B2070726F6A6563742D2D00202044
:1012B000446F6F7220697320636C6F736500204503
:1012C0006E7465722050617373776F7264002020B2
:1012D000446F6F72206973204F70656E0020205735
:0E12E000726F6E672050617373776F726400D7
:107E0000112484B714BE81FFF0D085E080938100F7
:107E100082E08093C00088E18093C10086E0809377
:107E2000C20080E18093C4008EE0C9D0259A86E02C
:107E300020E33CEF91E0309385002093840096BBD3
:107E4000B09BFECF1D9AA8958150A9F7CC24DD24C4
:107E500088248394B5E0AB2EA1E19A2EF3E0BF2EE7
:107E6000A2D0813461F49FD0082FAFD0023811F036
:107E7000013811F484E001C083E08DD089C08234E0
:107E800011F484E103C0853419F485E0A6D080C0E4
:107E9000853579F488D0E82EFF2485D0082F10E0AE
:107EA000102F00270E291F29000F111F8ED06801E7
:107EB0006FC0863521F484E090D080E0DECF843638
:107EC00009F040C070D06FD0082F6DD080E0C81688
:107ED00080E7D80618F4F601B7BEE895C0E0D1E017
:107EE00062D089930C17E1F7F0E0CF16F0E7DF06D8
:107EF00018F0F601B7BEE89568D007B600FCFDCFD4
:107F0000A601A0E0B1E02C9130E011968C91119780
:107F100090E0982F8827822B932B1296FA010C0160
:107F200087BEE89511244E5F5F4FF1E0A038BF0790
:107F300051F7F601A7BEE89507B600FCFDCF97BE46
:107F4000E89526C08437B1F42ED02DD0F82E2BD052
:107F50003CD0F601EF2C8F010F5F1F4F84911BD097
:107F6000EA94F801C1F70894C11CD11CFA94CF0C13
:107F7000D11C0EC0853739F428D08EE10CD085E9AC
:107F80000AD08FE07ACF813511F488E018D01DD067
:107F900080E101D065CF982F8091C00085FFFCCF94
:107FA0009093C60008958091C00087FFFCCF809118
:107FB000C00084FD01C0A8958091C6000895E0E648
:107FC000F0E098E1908380830895EDDF803219F02E
:107FD00088E0F5DFFFCF84E1DECF1F93182FE3DFCA
:107FE0001150E9F7F2DF1F91089580E0E8DFEE27F6
:047FF000FF270994CA
:027FFE00040479
:00000001FF
