:020000040000FA
:100000000C9462000C948A000C948A000C948A0070
:100010000C948A000C948A000C948A000C948A0038
:100020000C948A000C948A000C948A000C948A0028
:100030000C948A000C948A000C948A000C948A0018
:100040000C94E2030C948A000C948A000C948A00AD
:100050000C948A000C948A000C948A000C948A00F8
:100060000C948A000C948A000000000024002700F1
:100070002A0000000000250028002B0000000000DE
:1000800023002600290004040404040404040202DA
:100090000202020203030303030301020408102007
:1000A0004080010204081020010204081020000012
:1000B0000008000201000003040700000000000027
:1000C0000000930611241FBECFEFD8E0DEBFCDBFE6
:1000D00011E0A0E0B1E0EEE6FEE002C005900D9276
:1000E000A037B107D9F722E0A0E7B1E001C01D9227
:1000F000AA30B207E1F710E0C2E6D0E004C02197D1
:10010000FE010E942107C136D107C9F70E942C04C5
:100110000C9435070C94000096E0899FD0011124BF
:10012000AD57BE4F90967C936E935F9791E09196FA
:100130009C939197E091F001F091F1019091EF0182
:10014000992339F0309751F0811108C080919F01B7
:100150000994309719F05C968C91FACF0895CF925C
:10016000DF92EF92FF920F931F9396E0899FF00129
:100170001124ED57FE4F11A2278D30A121303105FA
:1001800051F178F02230310509F451C023303105A6
:1001900009F452C01F910F91FF90EF90DF90CF9024
:1001A00008956623B9F361E070E00E948C002FB7D8
:1001B000F89480917F0190918001A0918101B0918C
:1001C00082012FBF8093DB019093DC01A093DD01BE
:1001D000B093DE01DFCF9FB7F894C0907F01D0903D
:1001E0008001E0908101F09082019FBF0091DB01CE
:1001F0001091DC012091DD013091DE01C01AD10A9D
:10020000E20AF30A0091ED011091EE0130E020E0E6
:100210000C151D052E053F0550F462E070E01F919E
:100220000F91FF90EF90DF90CF900C948C006111B4
:10023000B1CF63E070E0F3CF70E060E0F0CFAF9259
:10024000BF92CF92DF92EF92FF920F931F93CF93C3
:10025000DF936C017B018B01040F151FEB015E0125
:10026000AE18BF08C017D10759F06991D601ED91BA
:10027000FC910190F081E02DC6010995892B79F759
:10028000C501DF91CF911F910F91FF90EF90DF900B
:10029000CF90BF90AF900895833081F028F48130E3
:1002A00099F08230A9F008958730A9F08830C9F01C
:1002B0008430B1F4809180008F7D03C080918000F4
:1002C0008F7780938000089584B58F7784BD0895DB
:1002D00084B58F7DFBCF8091B0008F778093B00085
:1002E00008958091B0008F7DF9CFCF93DF93282FB1
:1002F00030E0F901E255FF4F8491F901E656FF4FD6
:10030000D491F901EA57FF4FC491CC23A1F0811198
:100310000E944C01EC2FF0E0EE0FFF1FE458FF4F5E
:10032000A591B491EC91ED2381E090E009F480E097
:10033000DF91CF91089580E090E0FACF862F0C9462
:1003400075011F93CF93DF93282F30E0F901E25519
:10035000FF4F8491F901E656FF4FD491F901EA5716
:10036000FF4FC491CC23A9F0162F81110E944C019C
:10037000EC2FF0E0EE0FFF1FEE58FF4FA591B49168
:100380008FB7F894EC91111108C0D095DE23DC935F
:100390008FBFDF91CF911F910895DE2BF8CF862F6D
:1003A000642F0C94A101CF93DF9390E0FC01E656FB
:1003B000FF4F24918A579F4FFC0184918823C9F0F5
:1003C00090E0880F991FFC01E859FF4FA591B49167
:1003D000FC01EE58FF4FC591D49161110DC09FB73C
:1003E000F8948C91209582238C93888128232883EC
:1003F0009FBFDF91CF910895623051F49FB7F89479
:100400003C91822F809583238C93E8812E2BEFCF14
:100410008FB7F894EC912E2B2C938FBFEACF862FB9
:10042000642F0C94D3013FB7F8948091710190919F
:100430007201A0917301B091740126B5A89B05C00B
:100440002F3F19F00196A11DB11D3FBFBA2FA92F53
:10045000982F8827BC01CD01620F711D811D911D50
:1004600042E0660F771F881F991F4A95D1F70895BC
:100470008F929F92AF92BF92CF92DF92EF92FF92B4
:100480004B015C010E9413026B017C010E9413026C
:100490006C197D098E099F09683E7340810591059D
:1004A000A8F321E0821A9108A108B10888EEC80ECD
:1004B00083E0D81EE11CF11C81149104A104B10455
:1004C00029F7FF90EF90DF90CF90BF90AF909F9073
:1004D0008F900895089590E080E0089561E082E1B2
:1004E0000E94A10164E170E080E090E00E94380287
:1004F00060E082E10C94A101FC0101900020E9F789
:100500003197AF01481B590BBC0182EF91E00C946D
:100510001F01CF93DF93EC0160E08E810E94A10167
:1005200061E08E810E94A10160E08E810E94A101A4
:100530008BE891E00197F1F7DF91CF910895CF9289
:10054000DF92EF92FF920F931F93CF93DF936C0193
:100550007C0187E0E80EF11CD0E0C0E0062F10E03F
:10056000B8010C2E02C0759567950A94E2F7617088
:10057000F70181917F010E94A1012196C430D1052C
:1005800079F7C601DF91CF911F910F91FF90EF9006
:10059000DF90CF900C948902CF92DF92EF92FF927E
:1005A0000F931F93CF93DF93EC01F62E642F8C8172
:1005B0000E94A1018D818F3F19F060E00E94A1018E
:1005C0000F2D10E08F8584FF25C06E0187E0C80ED7
:1005D000D11CF12CE12CB8010E2C02C07595679549
:1005E0000A94E2F76170F60181916F010E94A10106
:1005F000FFEFEF1AFF0A88E0E816F10461F7CE0179
:10060000DF91CF911F910F91FF90EF90DF90CF90EE
:100610000C948902B80184E0759567958A95E1F795
:10062000CE010E949F026F2DCE01DF91CF911F91CD
:100630000F91FF90EF90DF90CF900C949F0240E0DD
:10064000682F82EF91E00C94CC0281E00E941F039E
:100650008BE39FE10197F1F70895CF93DF93823009
:1006600029F4909101029860909301028093050211
:100670001092060280E48093070280E180930802D2
:1006800080E58093090261E08091F6010E94D30128
:100690008091F7018F3F19F061E00E94D30161E082
:1006A0008091F8010E94D301C2EFD1E09E01225F48
:1006B00031408091010284FD0BC084E090E02196DE
:1006C0002817390744F461E08E810E94D301EECFF0
:1006D00088E090E0F4CF8BE39DE00197F1F760E0D4
:1006E0008091F6010E94A10160E08091F8010E94D2
:1006F000A1018091F7018F3F19F060E00E94A101F4
:100700008091010284FD34C063E082EF91E00E9499
:100710009F02CBE4D6E4CE010197F1F763E082EFCC
:1007200091E00E949F022197F1F763E082EF91E050
:100730000E949F0283E592E00197F1F762E082EF69
:1007400091E00E949F028091010280620E941F033B
:1007500084E0809302028CE00E941F030E94250324
:1007600082E08093030286E0DF91CF910C941F0317
:1007700080620E941F038BE496E40197F1F7809159
:10078000010280620E941F0383E592E00197F1F766
:100790008091010280620E941F03D5CFE091050283
:1007A000E23040F4E150F0E0EE50FE4F8489806882
:1007B0000C941F03E1E0F7CF41E00E94CC0281E0FE
:1007C00090E008951F920F920FB60F9211242F936D
:1007D0003F938F939F93AF93BF9380917F019091AD
:1007E0008001A0918101B09182013091700123E0DC
:1007F000230F2D3758F50196A11DB11D20937001CF
:1008000080937F0190938001A0938101B093820136
:100810008091710190917201A0917301B091740166
:100820000196A11DB11D8093710190937201A09357
:100830007301B0937401BF91AF919F918F913F91DC
:100840002F910F900FBE0F901F90189526E8230F41
:100850000296A11DB11DD2CF789484B5826084BD6B
:1008600084B5816084BD85B5826085BD85B58160B4
:1008700085BD80916E00816080936E001092810032
:1008800080918100826080938100809181008160ED
:1008900080938100809180008160809380008091AE
:1008A000B10084608093B1008091B000816080933A
:1008B000B00080917A00846080937A0080917A0001
:1008C000826080937A0080917A00816080937A00C0
:1008D00080917A00806880937A001092C10082E053
:1008E0000E942D0361E081E10E94D30161E082E179
:1008F0000E94D30161E081E00E94D30189E291E08E
:100900000E947C020E94CE0384E391E00E947C025C
:1009100060ED77E080E090E00E9438020E942503BD
:1009200082E491E00E947C020E94CE0369E290E0A2
:1009300080E00E94130761E381E090E00E941307CA
:1009400062E382E090E00E94130763E383E090E0BB
:100950000E94130705E711E0D0E0C0E0CE010E943D
:100960000B07F80181938F012196C430D105B1F7AF
:10097000412C512C3201439488248A94982C50E0C5
:10098000C52E50E0D52EF1E0F093EF018FB7F8942B
:1009900040917F01509180016091810170918201AD
:1009A0008FBF8091DF019091E001A091E101B091B2
:1009B000E201481B590B6A0B7B0B8091EB01909174
:1009C000EC01B0E0A0E084179507A607B70708F090
:1009D0006EC1C0E08091E901C81760F4E091E501C3
:1009E000F091E601EC0FF11D62E080810E94D301DD
:1009F000CF5FF0CF312C8091EA01381608F05FC04C
:100A0000032D10E0E091E701F091E801E00FF11F04
:100A100061E080810E94D301E091E701F091E8015B
:100A2000E00FF11F60E080810E94A101D301C201AB
:100A3000032C04C0880F991FAA1FBB1F0A94D2F76A
:100A40005C017C01E094F094212C8091E90128164E
:100A5000F8F4C22DD0E0E091E501F091E601EC0F51
:100A6000FD1F80810E9475012496CC0FDD1FCD579C
:100A7000DE4F892B41F4888199818A299B299983AA
:100A800088832394E2CF888199818E219F21F7CF9B
:100A9000E091E701F091E801E00FF11F61E0808152
:100AA0000E94A1018091E7019091E801080F191FB0
:100AB00060E0F80180810E94D30133949CCF03E869
:100AC00011E0E8018F8D98A1892B21F41C8E9E8E58
:100AD0008D8E19A22696F1E0CF3BDF0799F7B12C56
:100AE0008091E901B81608F053C0A12CEB2CF12C31
:100AF000EE0CFF1CC70185579E4F7C012091EA0137
:100B0000A21608F043C0F701608171810A2C02C06F
:100B1000769567950A94E2F7B29E900111242A0D0A
:100B2000311DE3E8F1E080E0458D568D241735074F
:100B300009F4F7C08F5F36968A30B1F760FF24C0A2
:100B4000E3E8F1E090E080E0448D411118C0E091CD
:100B5000E301F091E401E20FF31F408156E0589F5A
:100B6000F001599FF00D1124ED57FE4F448F368F41
:100B7000258F10A2178E61E00E94AF0005C001967C
:100B800036968A30910501F7A394B8CFB394A8CFD5
:100B900080E0F80191A19111892F0A5F1F4FC017C2
:100BA000D107B9F79FB7F89440917F015091800128
:100BB00060918101709182019FBF4093DF0150934A
:100BC000E0016093E1017093E201882309F46FC0B2
:100BD0008091A401882309F46AC08091A2019091B8
:100BE000A301019709F063C060919F01611162C088
:100BF00080917D0190917E01049709F051C068ECCD
:100C000070E080E090E00E94380205E711E0D0E05B
:100C1000C0E0CE010E940B07F80181938F0121965D
:100C2000C430D105B1F744E050E065E771E089E7F1
:100C300091E00E94270761E0892B09F052C081E012
:100C40000E94A10161E081E10E94A1010E946E0267
:100C50000E94250382E591E00E947C0260ED77E02E
:100C600080E090E00E9438020E94CE0360ED77E0C1
:100C700080E090E00E9438020E94250382E491E027
:100C80000E947C020E94CE0310927E0110927D0190
:100C900060E081E10E94A10160E081E00E94A10189
:100CA000C114D10409F46FCE0E9400006CCE1092E2
:100CB000EF019ECF80917D0190917E019C012F5F7D
:100CC0003F4F30937E0120937D0187589E4FFC015A
:100CD000608341E082EF91E00E94CC020E946E02AC
:100CE00087CF82E10E94A1010E9425038EE591E059
:100CF0000E947C020E94CE0360ED77E080E090E0ED
:100D00000E9438020E94250382E491E00E947C0246
:100D10000E94CE0310927E0110927D0160E082E17C
:100D2000BDCF617029CF1092F5011092F40181E2DC
:100D300091E09093F3018093F2018DE08093F601AE
:100D40008FEF8093F7018CE08093F80188E0809327
:100D5000F90187E08093FA0184E08093FB0182E04F
:100D60008093FC011092FD011092FE011092FF0190
:100D7000109200021092010281E00E942D03109255
:100D80008501109289011092880110928A0187E1F1
:100D900091E09093840180938301EFE9F1E0108268
:100DA000148213821582369681E0EB3DF807B9F77D
:100DB00083E091E09093E6018093E50180E091E08B
:100DC0009093E8018093E70184E08093E90183E058
:100DD0008093EA0187E091E09093E4018093E3013E
:100DE0008AE090E09093EC018093EB0184EF91E036
:100DF0009093EE018093ED011092F1011092F001B9
:100E00001092DF011092E0011092E1011092E201D4
:100E10001092EF010895F999FECF92BD81BDF89A25
:100E2000992780B50895262FF999FECF1FBA92BD54
:100E300081BD20BD0FB6F894FA9AF99A0FBE0196BB
:100E40000895EE0FFF1F0590F491E02D0994FB012A
:100E5000DC014150504030F08D910190801919F41F
:100E60000020B9F7881B990B0895F894FFCF10055F
:100E7000130E0A090F3132333435363738392A30F8
:100E800023000000000F02CF019E0100000000DCE3
:100E9000031F016B026A0220444F4F52204C4F4304
:100EA0004B00202D2D50726F6A6563742D2D20002C
:100EB000456E7465722050617373776F72643A0087
:100EC000446F6F72204F70656E65640041636365A7
:0E0ED00073732044656E6965642E2E2E00003B
:107E0000112484B714BE81FFF0D085E080938100F7
:107E100082E08093C00088E18093C10086E0809377
:107E2000C20080E18093C4008EE0C9D0259A86E02C
:107E300020E33CEF91E0309385002093840096BBD3
:107E4000B09BFECF1D9AA8958150A9F7CC24DD24C4
:107E500088248394B5E0AB2EA1E19A2EF3E0BF2EE7
:107E6000A2D0813461F49FD0082FAFD0023811F036
:107E7000013811F484E001C083E08DD089C08234E0
:107E800011F484E103C0853419F485E0A6D080C0E4
:107E9000853579F488D0E82EFF2485D0082F10E0AE
:107EA000102F00270E291F29000F111F8ED06801E7
:107EB0006FC0863521F484E090D080E0DECF843638
:107EC00009F040C070D06FD0082F6DD080E0C81688
:107ED00080E7D80618F4F601B7BEE895C0E0D1E017
:107EE00062D089930C17E1F7F0E0CF16F0E7DF06D8
:107EF00018F0F601B7BEE89568D007B600FCFDCFD4
:107F0000A601A0E0B1E02C9130E011968C91119780
:107F100090E0982F8827822B932B1296FA010C0160
:107F200087BEE89511244E5F5F4FF1E0A038BF0790
:107F300051F7F601A7BEE89507B600FCFDCF97BE46
:107F4000E89526C08437B1F42ED02DD0F82E2BD052
:107F50003CD0F601EF2C8F010F5F1F4F84911BD097
:107F6000EA94F801C1F70894C11CD11CFA94CF0C13
:107F7000D11C0EC0853739F428D08EE10CD085E9AC
:107F80000AD08FE07ACF813511F488E018D01DD067
:107F900080E101D065CF982F8091C00085FFFCCF94
:107FA0009093C60008958091C00087FFFCCF809118
:107FB000C00084FD01C0A8958091C6000895E0E648
:107FC000F0E098E1908380830895EDDF803219F02E
:107FD00088E0F5DFFFCF84E1DECF1F93182FE3DFCA
:107FE0001150E9F7F2DF1F91089580E0E8DFEE27F6
:047FF000FF270994CA
:027FFE00040479
:00000001FF
