:020000040000FA
:100000000C945D000C9485000C9485000C94850084
:100010000C9485000C9485000C9485000C9485004C
:100020000C9485000C9485000C9485000C9485003C
:100030000C9485000C9485000C9485000C9485002C
:100040000C9437030C9485000C9485000C94850067
:100050000C9485000C9485000C9485000C9485000C
:100060000C9485000C9485000000000024002700FB
:100070002A0000000000250028002B0004040404CE
:100080000404040402020202020203030303030342
:10009000010204081020408001020408102001021F
:1000A00004081020000000080002010000030407FB
:1000B0000000000000000000E10411241FBECFEF8B
:1000C000D8E0DEBFCDBF11E0A0E0B1E0EAECFEE099
:1000D00002C005900D92AA34B107D9F721E0AAE435
:1000E000B1E001C01D92AB36B207E1F710E0CDE5FB
:1000F000D0E004C02197FE010E945D07CC35D107F6
:10010000C9F70E9481030C9463070C940000AF921E
:10011000BF92CF92DF92EF92FF920F931F93CF93F4
:10012000DF936C017B018B01040F151FEB015E0156
:10013000AE18BF08C017D10759F06991D601ED91EB
:10014000FC910190F081E02DC6010995892B79F78A
:10015000C501DF91CF911F910F91FF90EF90DF903C
:10016000CF90BF90AF90089590E0FC01EC55FF4F09
:100170002491FC01E057FF4F3491FC01E458FF4FFC
:10018000E491EE23C9F0222339F0233001F1A8F4E1
:10019000213019F1223029F1F0E0EE0FFF1FEE5867
:1001A000FF4FA591B4918FB7F894EC91611126C0DF
:1001B00030953E233C938FBF08952730A9F0283017
:1001C000C9F0243049F7809180008F7D03C0809171
:1001D00080008F7780938000DFCF84B58F7784BDD8
:1001E000DBCF84B58F7DFBCF8091B0008F7780937C
:1001F000B000D2CF8091B0008F7DF9CF3E2BDACF07
:10020000CF93DF9390E0FC01E057FF4F2491845897
:100210009F4FFC0184918823D1F090E0880F991FB3
:10022000FC01E859FF4FA591B491FC01EE58FF4F36
:10023000C591D49161110EC09FB7F8948C91E22FB3
:10024000E0958E238C932881E223E8839FBFDF9182
:10025000CF9108958FB7F894EC91E22BEC938FBF78
:10026000F6CF3FB7F89480914F0190915001A09143
:100270005101B091520126B5A89B05C02F3F19F03E
:100280000196A11DB11D3FBFBA2FA92F982F882716
:10029000BC01CD01620F711D811D911D42E0660FF1
:1002A000771F881F991F4A95D1F708958F929F92C3
:1002B000AF92BF92CF92DF92EF92FF924B015C011F
:1002C0000E9431016B017C010E9431016C197D0992
:1002D0008E099F09683E734081059105A8F321E0CE
:1002E000821A9108A108B10888EEC80E83E0D81ED2
:1002F000E11CF11C81149104A104B10429F7FF90C1
:10030000EF90DF90CF90BF90AF909F908F90089527
:10031000089590E080E00895FC0101900020E9F745
:100320003197AF01481B590BBC0183E591E00C9458
:1003300087008F929F92AF92BF920F931F93CF939C
:10034000DF93CDB7DEB7A1970FB6F894DEBF0FBE2F
:10035000CDBF19A2423008F44AE08E010F5D1F4F55
:10036000842E912CB12CA12CA50194010E943B0755
:10037000E62FB901CA01EA30F4F4E05DD801EE934A
:100380008D01232B242B252B79F790E080E010970B
:1003900019F0CD010E948C01A1960FB6F894DEBF32
:1003A0000FBECDBFDF91CF911F910F91BF90AF9046
:1003B0009F908F900895E95CE1CFCF93DF93EC019C
:1003C00060E08E810E94B40061E08E810E94B400E2
:1003D00060E08E810E94B4008BE891E00197F1F714
:1003E000DF91CF910895CF92DF92EF92FF920F931A
:1003F0001F93CF93DF936C017C0187E0E80EF11C23
:10040000D0E0C0E0062F10E0B8010C2E02C07595B8
:1004100067950A94E2F76170F70181917F010E946C
:10042000B4002196C430D10579F7C601DF91CF9190
:100430001F910F91FF90EF90DF90CF900C94DD0112
:10044000CF92DF92EF92FF920F931F93CF93DF93A0
:10045000EC01F62E642F8C810E94B4008D818F3FB9
:1004600019F060E00E94B4000F2D10E08F8584FF2A
:1004700025C06E0187E0C80ED11CF12CE12CB8011B
:100480000E2C02C0759567950A94E2F76170F6012B
:1004900081916F010E94B400FFEFEF1AFF0A88E01C
:1004A000E816F10461F7CE01DF91CF911F910F9112
:1004B000FF90EF90DF90CF900C94DD01B80184E0C5
:1004C000759567958A95E1F7CE010E94F3016F2D2E
:1004D000CE01DF91CF911F910F91FF90EF90DF90B0
:1004E000CF900C94F30140E0682F83E591E00C94E9
:1004F000200281E00E9473028BE39FE10197F1F7F4
:100500000895CF93DF93823029F49091620198602F
:1005100090936201809366011092670180E480935A
:10052000680180E18093690180E580936A0161E060
:10053000809157010E940001809158018F3F19F06E
:1005400061E00E94000161E0809159010E94000178
:10055000C3E5D1E09E01235531408091620184FDC5
:100560000BC084E090E021962817390744F461E03D
:100570008E810E940001EECF88E090E0F4CF8BE303
:100580009DE00197F1F760E0809157010E94B4006F
:1005900060E0809159010E94B400809158018F3F22
:1005A00019F060E00E94B4008091620184FD34C0C3
:1005B00063E083E591E00E94F301CBE4D6E4CE0151
:1005C0000197F1F763E083E591E00E94F301219741
:1005D000F1F763E083E591E00E94F30183E592E0A7
:1005E0000197F1F762E083E591E00E94F3018091C9
:1005F000620180620E94730284E0809363018CE058
:100600000E9473020E94790282E08093640186E076
:10061000DF91CF910C94730280620E9473028BE48D
:1006200096E40197F1F78091620180620E94730263
:1006300083E592E00197F1F78091620180620E9468
:100640007302D5CF90916601691710F06FEF690FB3
:10065000E62FF0E0ED5AFE4F9489890F80680C94E4
:10066000730241E00E94200281E090E008951F9211
:100670000F920FB60F9211242F933F938F939F9356
:10068000AF93BF9380914B0190914C01A0914D018C
:10069000B0914E0130914A0123E0230F2D3758F5D8
:1006A0000196A11DB11D20934A0180934B019093A7
:1006B0004C01A0934D01B0934E0180914F01909158
:1006C0005001A0915101B09152010196A11DB11D9F
:1006D00080934F0190935001A0935101B093520128
:1006E000BF91AF919F918F913F912F910F900FBE2E
:1006F0000F901F90189526E8230F0296A11DB11D9B
:10070000D2CF789484B5826084BD84B5816084BD85
:1007100085B5826085BD85B5816085BD80916E009F
:10072000816080936E0010928100809181008260D0
:10073000809381008091810081608093810080910D
:1007400080008160809380008091B10084608093FC
:10075000B1008091B00081608093B00080917A00F8
:10076000846080937A0080917A00826080937A001E
:1007700080917A00816080937A0080917A0080680D
:1007800080937A001092C10060E08EE00E94000128
:1007900082E00E94810288E40E947302C0E0D1E0FE
:1007A00008E011E0699183E591E00E9431030C17A4
:1007B0001D07C1F760E080E00E94220384E191E020
:1007C0000E948C0161E080E00E9422038EE191E0B2
:1007D0000E948C0160EA7FE080E090E00E94560178
:1007E0000E94790210E4C0E0D0E010937C00809178
:1007F0007A00806480937A0080917A0086FDFCCF35
:100800008091780060917900762F682F072E000C78
:10081000880B990B0E9414062DEC3CEC4CE451E43F
:100820000E9471056B017C014B015C016AE070E084
:1008300080E090E00E9456010E94790260E080E032
:100840000E9422038CE291E00E948C0161E084E02E
:100850000E942203A7019601C701B6010E94360734
:100860008823C9F08DE391E00E948C0161E083E56B
:1008700091E00E9431038BE391E00E948C0168EECD
:1008800073E080E090E00E945601209709F4ADCF1C
:100890000E940000AACF26013701E89477F82FEFD5
:1008A0003FEF4FE75FE7C301B2010E9436078111B6
:1008B0000DC02FEF3FEF4FE75FE7C301B2010E948A
:1008C0006C0518161CF481E491E0CECF2FEF3FEFBA
:1008D0004FE75FE4C701B6010E94C40618161CF476
:1008E00085E491E0C1CF2FEF3FEF4FE75FECC70109
:1008F000B6010E946C0587FDF3CF20E030E0A9012E
:10090000C701B6010E946C0587FF0CC041E06DE293
:1009100083E591E00E94200246015701B7FAB094A6
:10092000B7F8B0942AE037ED43EA5BE3C501B401C0
:100930000E9400054B015C010E94E3056B017C01F4
:100940000E9412069B01AC01C501B4010E94FF0484
:100950004B015C014AE0C701B6010E94990141E0E8
:100960006EE283E591E00E94200220E030E040E268
:1009700051E4C501B4010E94C9064B015C010E940B
:10098000E3056B01F12CE12C4AE0C701B6010E949E
:100990009901C701B6010E9412069B01AC01C50175
:1009A000B4010E94FF0420E030E040E251E40E94E4
:1009B000C9060E94E30590E080E04AE00E949901A8
:1009C00055CFE3E5F1E0138212828CE091E0918350
:1009D00080838CE084838FEF85838BE0868385E042
:1009E000878384E0808783E0818782E08287138623
:1009F000148615861686178681E00C94810250585D
:100A0000BB27AA270E9417050C948A060E947C0621
:100A100038F00E94830620F039F49F3F19F426F441
:100A20000C9479060EF4E095E7FB0C947306E92F1D
:100A30000E949B0658F3BA1762077307840795074D
:100A400020F079F4A6F50C94BD060EF4E0950B2E7B
:100A5000BA2FA02D0B01B90190010C01CA01A00110
:100A60001124FF27591B99F0593F50F4503E68F16B
:100A70001A16F040A22F232F342F4427585FF3CFAC
:100A8000469537952795A795F0405395C9F77EF47D
:100A90001F16BA0B620B730B840BBAF09150A1F0C6
:100AA000FF0FBB1F661F771F881FC2F70EC0BA0F4C
:100AB000621F731F841F48F4879577956795B795D4
:100AC000F7959E3F08F0B0CF9395880F08F09927CF
:100AD000EE0F9795879508950E944F0608F481E0E0
:100AE00008950E9485050C948A060E94830658F09A
:100AF0000E947C0640F029F45F3F29F00C947306B5
:100B000051110C94BE060C9479060E949B0668F362
:100B10009923B1F3552391F3951B550BBB27AA27B6
:100B200062177307840738F09F5F5F4F220F331FF0
:100B3000441FAA1FA9F335D00E2E3AF0E0E832D0B8
:100B400091505040E695001CCAF72BD0FE2F29D0BB
:100B5000660F771F881FBB1F261737074807AB078D
:100B6000B0E809F0BB0B802DBF01FF2793585F4F02
:100B70003AF09E3F510578F00C9473060C94BE0633
:100B80005F3FE4F3983ED4F3869577956795B795E4
:100B9000F7959F5FC9F7880F911D9695879597F9EF
:100BA0000895E1E0660F771F881FBB1F6217730768
:100BB0008407BA0720F0621B730B840BBA0BEE1F7D
:100BC00088F7E09508950E94A30688F09F5798F053
:100BD000B92F9927B751B0F0E1F0660F771F881F42
:100BE000991F1AF0BA95C9F714C0B13091F00E945C
:100BF000BD06B1E008950C94BD06672F782F8827B5
:100C0000B85F39F0B93FCCF3869577956795B39582
:100C1000D9F73EF490958095709561957F4F8F4FF1
:100C20009F4F0895E89409C097FB3EF490958095F6
:100C3000709561957F4F8F4F9F4F9923A9F0F92FA2
:100C400096E9BB279395F695879577956795B79520
:100C5000F111F8CFFAF4BB0F11F460FF1BC06F5F06
:100C60007F4F8F4F9F4F16C0882311F096E911C018
:100C7000772321F09EE8872F762F05C0662371F039
:100C800096E8862F70E060E02AF09A95660F771F4D
:100C9000881FDAF7880F9695879597F90895990F29
:100CA0000008550FAA0BE0E8FEEF16161706E80736
:100CB000F907C0F012161306E407F50798F0621B57
:100CC000730B840B950B39F40A2661F0232B242B2C
:100CD000252B21F408950A2609F4A140A6958FEF4B
:100CE000811D811D089597F99F6780E870E060E09D
:100CF00008959FEF80EC089500240A9416161706B5
:100D000018060906089500240A94121613061406FC
:100D100005060895092E0394000C11F4882352F05F
:100D2000BB0F40F4BF2B11F460FF04C06F5F7F4F17
:100D30008F4F9F4F089557FD9058440F551F59F0FE
:100D40005F3F71F04795880F97FB991F61F09F3FB8
:100D500079F087950895121613061406551FF2CFE1
:100D60004695F1DF08C0161617061806991FF1CF31
:100D700086957105610508940895E894BB27662758
:100D80007727CB0197F908950E944F0608F48FEF5B
:100D900008950E94DC060C948A060E947C0638F0B6
:100DA0000E94830620F0952311F00C9473060C9496
:100DB000790611240C94BE060E949B0670F3959F41
:100DC000C1F3950F50E0551F629FF001729FBB2742
:100DD000F00DB11D639FAA27F00DB11DAA1F649FDE
:100DE0006627B00DA11D661F829F2227B00DA11D91
:100DF000621F739FB00DA11D621F839FA00D611D17
:100E0000221F749F3327A00D611D231F849F600D37
:100E1000211D822F762F6A2F11249F5750409AF060
:100E2000F1F088234AF0EE0FFF1FBB1F661F771FEC
:100E3000881F91505040A9F79E3F510580F00C94B7
:100E400073060C94BE065F3FE4F3983ED4F3869598
:100E500077956795B795F795E7959F5FC1F7FE2B57
:100E6000880F911D9695879597F908950E944F06D2
:100E7000880B990B0895A1E21A2EAA1BBB1BFD013A
:100E80000DC0AA1FBB1FEE1FFF1FA217B307E40769
:100E9000F50720F0A21BB30BE40BF50B661F771FC1
:100EA000881F991F1A9469F76095709580959095A1
:100EB0009B01AC01BD01CF010895EE0FFF1F05900E
:100EC000F491E02D0994F894FFCF07050700000086
:100ED00000000000000031038700890188012044E0
:100EE00069676974616C200020546865726D6F6D6C
:100EF00065746572200054656D70657261747572F9
:100F00006520696E2043006E616E00696E66006F39
:040F10007666000001
:107E0000112484B714BE81FFF0D085E080938100F7
:107E100082E08093C00088E18093C10086E0809377
:107E2000C20080E18093C4008EE0C9D0259A86E02C
:107E300020E33CEF91E0309385002093840096BBD3
:107E4000B09BFECF1D9AA8958150A9F7CC24DD24C4
:107E500088248394B5E0AB2EA1E19A2EF3E0BF2EE7
:107E6000A2D0813461F49FD0082FAFD0023811F036
:107E7000013811F484E001C083E08DD089C08234E0
:107E800011F484E103C0853419F485E0A6D080C0E4
:107E9000853579F488D0E82EFF2485D0082F10E0AE
:107EA000102F00270E291F29000F111F8ED06801E7
:107EB0006FC0863521F484E090D080E0DECF843638
:107EC00009F040C070D06FD0082F6DD080E0C81688
:107ED00080E7D80618F4F601B7BEE895C0E0D1E017
:107EE00062D089930C17E1F7F0E0CF16F0E7DF06D8
:107EF00018F0F601B7BEE89568D007B600FCFDCFD4
:107F0000A601A0E0B1E02C9130E011968C91119780
:107F100090E0982F8827822B932B1296FA010C0160
:107F200087BEE89511244E5F5F4FF1E0A038BF0790
:107F300051F7F601A7BEE89507B600FCFDCF97BE46
:107F4000E89526C08437B1F42ED02DD0F82E2BD052
:107F50003CD0F601EF2C8F010F5F1F4F84911BD097
:107F6000EA94F801C1F70894C11CD11CFA94CF0C13
:107F7000D11C0EC0853739F428D08EE10CD085E9AC
:107F80000AD08FE07ACF813511F488E018D01DD067
:107F900080E101D065CF982F8091C00085FFFCCF94
:107FA0009093C60008958091C00087FFFCCF809118
:107FB000C00084FD01C0A8958091C6000895E0E648
:107FC000F0E098E1908380830895EDDF803219F02E
:107FD00088E0F5DFFFCF84E1DECF1F93182FE3DFCA
:107FE0001150E9F7F2DF1F91089580E0E8DFEE27F6
:047FF000FF270994CA
:027FFE00040479
:00000001FF
